@ba10 ; Affinity 
@bb01 ; MemBank 
@bc03 ; Command 
:020000020A00F2
:1000000097C0FFFFFFFFFFFFFFFFFFFFFFFFFFFFA7
:10009000FFFFFFFF2090410822FC32C02090400863
:1000A0002D92BD111895B0E71895FFFFFFFFFFFFD8
:10010000889A03982398229830926608AB98309288
:100110004608E5E5A3D5EFEFA89500C000C0E311C0
:10012000EA95B59BF9CFE311F6CFDAC53B627131A1
:10013000F8943324E8EDE0933400E5E8E09301100F
:10014000ECE012D6E8EDF3E0E4BFF0936000B5D048
:10015000E0916300E1FDFCCFE8EDF1E0E4BFF09356
:100160006200E0E0F0E6C0E0D0E231922197E9F7EA
:10017000F5D5E8EDE4BFE4E0E0930001A895EFE1F8
:10018000F0E6EDBFFEBFE8E0E0931304E093120455
:10019000E0931104E0931004E0E0F8E03682A0EC74
:1001A000B0E0A087B1873582A3E0A783A2ECA68345
:1001B000079805980E9A0C9A069A049AE8E0E0933C
:1001C000B304E093B204E093B504E093B404E0E434
:1001D000F8E03682A0E4B0E0A087B187A0E8A5836C
:1001E000A3E0A783A2ECA683A298A598AB9AAC9AA9
:1001F000A39AA49AE8E0E0933104E0933004E093FA
:100200003404E0933204E0933504E0933304E0E6F1
:10021000F8E03682A0E6B0E0A087B1873582A3E09F
:10022000A783A2ECA683249822982198289A209A42
:10023000259823982B98E0E0FAE0308231823282D0
:100240003382A3E0A083E0E0FBE030823286338695
:100250003182ACEDBFEFA487B587A5E1A0833CBA9E
:10026000442755277BD568D520E030E7390129019F
:10027000E901D901F0E8DF2E7894AB98E091060B04
:10028000E0FF0CC0E093060B72D5E0912160E3958E
:10029000E093216019F0EFE5E0930208A895B437E8
:1002A00068F330920A0B30920B0BE091060BE0934F
:1002B000060BEEE3E09302080BC00895F901E28912
:1002C000E0FF889AE0FD88983C5F3D11331330E7EA
:1002D000A895E0914408B29BE5FF09C0C415D50577
:1002E00031F0E991E0934208DD11DD13D0E7FD0123
:1002F000EC1BFD0B12F4E050F04FE03EEFE0FE0788
:1003000010F0AB9A01C0AB98E091060BE0FFE0CF94
:10031000E093060B2CD539012901E894A895FD013D
:10032000E619F70912F4E050F04FE030E4E0FE0780
:1003300010F06894239800C000C04B984B9A229804
:10034000A895E0914408B29BE5FF09C0C415D50506
:1003500031F0E991E0934208DD11DD13D0E7FD01B2
:10036000EC1BFD0B12F4E050F04FE03EEFE0FE0717
:1003700010F0AB9A01C0AB98349BE2CF0EF02DC1C8
:1003800000C0EAE2E0930208039A4FEF57E02BD057
:1003900043D044D043D042D041D045D03FD03ED0CE
:1003A0003DD03CD03BD03AD039D038D037D036D001
:1003B00035D034D033D032D031D030D02FD02ED031
:1003C0002DD02CD02BD02AD029D028D027D026D061
:1003D00025D024D023D022D021D020D0F901E48907
:1003E000E09321606BCFE2E0E093000AE8E0E09365
:1003F000050A00E310E00093280A1093290AE0910F
:100400000B0AE0930B0AE091060BE093060BE09ACF
:1004100087E0005C1D4F0CC0E09A01C0E09887E1C6
:1004200000501A4F05C0E0988FE70054114E00C0ED
:10043000E2E4E0936608E2ECE09366082301F3014E
:1004400001903F01E09B3292E3E0E093000AE091EB
:100450000B0AE4FFFCCF00926208E0914408B29BD3
:10046000E5FF09C0C415D50531F0E991E0934208D4
:10047000DD11DD13D0E7229A0093280A1093290A90
:10048000E0910B0AE0930B0A0090640807FE05C098
:10049000F2011090600811922F0105FEF5CFF301D3
:1004A0000190009262083F01E09B3292E091440883
:1004B000B29BE5FF09C0C415D50531F0E991E09381
:1004C0004208DD11DD13D0E7FD01EC1BFD0B12F43A
:1004D000E050F04FE03EEFE0FE0710F0AB9A01C0B5
:1004E000AB988A9589F60090640807FE05C0F20172
:1004F0001090600811922F01E0916408E093640865
:10050000E0916408E6FFFCCF0090640807FC04C09B
:1005100000C000C0000005C0F201109060081192F8
:100520002F010090640807FC04C000C000C0000058
:1005300005C0F2011090600811922F01009064082C
:1005400007FC04C000C000C0000005C0F20110900C
:10055000600811922F010090640807FC04C000C0DD
:1005600000C0000005C0F2011090600811922F0138
:100570000090640807FC04C000C000C0000005C073
:10058000F2011090600811922F010090640807FC9E
:1005900004C000C000C0000005C0F2011090600857
:1005A00011922F010090640807FC04C000C000C035
:1005B000000005C0F2011090600811922F01009018
:1005C000640807FC04C000C000C0000005C0F201C0
:1005D0001090600811922F0108950398E52FE7709D
:1005E000EE0FEE0FF0E0E050FA4D85918093216020
:1005F0008591F695E795415050400994FFFFFFFF24
:1006000001000EC0030014C0070018C00F001CC07A
:100610001F0020C03F0024C07F0028C0FF002CC066
:10062000E0E3E093020857FD51E0ECE4F8E22AC071
:10063000E1E3E0930208ECECF8E224C0E2E3E093AB
:100640000208ECE4F9E21EC0E3E3E0930208ECECFC
:10065000F9E218C0E4E3E0930208ECE4FAE212C025
:10066000E5E3E0930208ECECFAE20CC0E6E3E09389
:100670000208ECE4FBE206C0E7E3E0930208ECECDE
:10068000FBE200C03F0127D03BD04BD04AD049D03D
:1006900048D037D03AD039D038D037D036D035D00E
:1006A00034D033D032D031D030D02FD02ED02DD046
:1006B0002CD02BD02ED02DD02CD02BD02AD029D05E
:1006C00028D027D026D025D024D023D022D021D086
:1006D00020D01FD0FDCDE2E0E093000AE8E0E093F7
:1006E000050A00E310E00093280A1093290AE0911C
:1006F0000B0AE0930B0AE091060BE093060B0DC08A
:1007000010C0ECE9F7E23F0110C0ECE1F8E23F0174
:1007100008C0E4E3F8E23F0104C087E0005C1D4F3D
:1007200008C087E100501A4F04C08FE70054114EF3
:1007300000C0A895E2E4E0936608E2ECE093660866
:10074000F30105903F01E3E0E093000AE0910B0A1A
:10075000E4FFFCCF00926208229A0093280A1093CB
:10076000290AE0910B0AE0930B0A0090640805FE49
:10077000FCCFF3010590009262083F01FD01EC1BE4
:10078000FD0B12F4E050F04FE03EEFE0FE0710F0FA
:10079000AB9A01C0AB988A9541F70895FFFFFFFF20
:10081000FFFFFFFFFFFFFFFFFFFFFFFF00FFFFFFE7
:10083000FFFFFF7201BFFF00C0CD8003FF00FF007C
:1008400000000000000000000000003AFFFFFFFF72
:10085000FFFFFF14FFFF0000FFFFFFFFFFFFFF018F
:1008600001FFFFFFFFFFFFFFFFFFFF48FFFFFFFF4D
:10087000FFFFFFFFFFFFFFFFFFFFFFFFFFFFFF6720
:100880004B8621E2FFFFFFFFFFFFFFFFFFFFFFFFA0
:10089000FFFFFFFFFFFFFF674B8621E2FFFFFFFF28
:1008A000FFFFFFFFFFFFFFFFFFFFFFFFFFFFFF67F0
:1008B0004B8621E201BFFF00C0CD8003FF00FF0097
:1008C00000000000000000000000003AFFFFFFFFF2
:1008D000FFFFFF14FFFFFFFFFFFFFFFFFFFFFF030F
:1008E00003FFFFFFFFFFFFFFFFFFFF3AFFFFFFFFD9
:1008F000FFFFFFFFFFFFFFFFFFFFFFFFFFFFFF67A0
:100900004B8621E2FFFFFFFFFFFFFFFFFFFFFFFF1F
:10091000FFFFFFFFFFFFFF674B8621E2FFFFFFFFA7
:10092000FFFFFFFFFFFFFFFFFFFFFFFFFFFFFF676F
:100930004B8621E201BFFF00C0CD8003FF00FF0016
:1009400000000000000000000000003AFFFFFFFF71
:10095000FFFFFF14FFFF0000FFFFFFFFFFFFFF0788
:1009600007FFFFFFFFFFFFFFFFFFFFEDFFFFFFFFA1
:10097000FFFFFFFFFFFFFFFFFFFFFFFFFFFFFF671F
:100980004B8621E2FFFFFFFFFFFFFFFFFFFFFFFF9F
:10099000FFFFFFFFFFFFFF674B8621E2FFFFFFFF27
:1009A000FFFFFFFFFFFFFFFFFFFFFFFFFFFFFF67EF
:1009B0004B8621E201BFFF00C0CD8003FF00FF0096
:1009C00000000000000000000000003AFFFFFFFFF1
:1009D000FFFFFF14FFFF0000FFFFFFFFFFFFFF0F00
:1009E0000FFFFFFFFFFFFFFFFFFFFF78FFFFFFFF8E
:1009F000FFFFFFFFFFFFFFFFFFFFFFFFFFFFFF679F
:100A00004B8621E2FFFFFFFFFFFFFFFFFFFFFFFF1E
:100A1000FFFFFFFFFFFFFF674B8621E2FFFFFFFFA6
:100A2000FFFFFFFFFFFFFFFFFFFFFFFFFFFFFF676E
:100A30004B8621E201BFFF00C0CD8003FF00FF0015
:100A400000000000000000000000003AFFFFFFFF70
:100A5000FFFFFF14FFFF0000FFFFFFFFFFFFFF1F6F
:100A60001FFFFFFFFFFFFFFFFFFFFF4BFFFFFFFF2A
:100A7000FFFFFFFFFFFFFFFFFFFFFFFFFFFFFF671E
:100A80004B8621E2FFFFFFFFFFFFFFFFFFFFFFFF9E
:100A9000FFFFFFFFFFFFFF674B8621E2FFFFFFFF26
:100AA000FFFFFFFFFFFFFFFFFFFFFFFFFFFFFF67EE
:100AB0004B8621E201BFFF00C0CD8003FF00FF0095
:100AC00000000000000000000000003AFFFFFFFFF0
:100AD000FFFFFF14FFFFFFFFFFFFFFFFFFFFFF3FD1
:100AE0003FFFFFFFFFFFFFFFFFFFFF2DFFFFFFFFA8
:100AF000FFFFFFFFFFFFFFFFFFFFFFFFFFFFFF679E
:100B00004B8621E2FFFFFFFFFFFFFFFFFFFFFFFF1D
:100B1000FFFFFFFFFFFFFF674B8621E2FFFFFFFFA5
:100B2000FFFFFFFFFFFFFFFFFFFFFFFFFFFFFF676D
:100B30004B8621E201BFFF00C0CD8003FF00FF0014
:100B400000000000000000000000003AFFFFFFFF6F
:100B5000FFFFFF14FFFF0000FFFFFFFFFFFFFF7F0E
:100B60007FFFFFFFFFFFFFFFFFFFFFE1FFFFFFFF33
:100B7000FFFFFFFFFFFFFFFFFFFFFFFFFFFFFF671D
:100B80004B8621E2FFFFFFFFFFFFFFFFFFFFFFFF9D
:100B9000FFFFFFFFFFFFFF674B8621E2FFFFFFFF25
:100BA000FFFFFFFFFFFFFFFFFFFFFFFFFFFFFF67ED
:100BB0004B8621E201BFFF00C0CD8003FF00FF0094
:100BC00000000000000000000000003AFFFFFFFFEF
:100BD000FFFFFF14FFFF0000FFFFFFFFFFFFFFFF0E
:100BE000FFFFFFFFFFFFFFFFFFFFFF60FFFFFFFFB4
:100BF000FFFFFFFFFFFFFFFFFFFFFFFFFFFFFF679D
:100C00004B8621E2FFFFFFFFFFFFFFFFFFFFFFFF1C
:100C1000FFFFFFFFFFFFFF674B8621E2FFFFFFFFA4
:100C2000FFFFFFFFFFFFFFFFFFFFFFFFFFFFFF676C
:100C30004B8621E201BFFF00C0CD8003FF00FF0013
:100C400000000000000000000000003A0C940800C2
:100C50000C9409000C940A000C940B000C940C00EA
:100C60000C940D000C940E000C940F000C941000CA
:100C70000C9411000C9412000C9413000C941400AA
:100C80000C9415000C9416000C9417000C9418008A
:100C90000C9419000C941A000C941B000C941C006A
:100CA0000C941D000C941E000C941F000C9420004A
:100CB0000C9421000C9422000C9423000C9424002A
:100CC0000C9425000C9426000C9427000C9428000A
:100CD0000C9429000C942A000C942B000C942C00EA
:100CE0000C942D000C942E000C942F000C943000CA
:100CF0000C9431000C9432000C9433000C943400AA
:100D00000C9435000C9436000C9437000C94380089
:100D10000C9439000C943A000C943B000C943C0069
:100D20000C943D00E2E0F2E000C0EF23F09500906B
:100D300020600F22E02904C0E0E002C0EFEF00C015
:100D4000E093206000C0E09120600C943016EF2307
:100D5000F095009021600F22E02906C0E0E004C079
:100D6000E5E502C0EFEF00C0E093216000C0E09134
:100D700021600C942E16FFFFFFFFFFFFFFFFFFFF18
:00000001FF
; 
; *** EOF 
