:020000020000FC
:100000000C9446000C9421020C9421020C94B7012C
:10001000DBC1DDC1DFC1E1C116C103C183C584C538
:10002000E1C1DEC1E6C18FC394C319C41CC4A5C31A
:10003000AFC3B6C349C422C430C499C38EC392C3EC
:10004000C2C4F5C1E9C1EEC132C337C342C343C321
:100050004BC357C36EC372C37DC4FDC003C174C418
:10006000A7C3B1C38DC3CDC4CEC4CEC4E9C6ECC64C
:10007000EEC6F0C6F5C603C713C7A3C1010000C191
:10008000000000006AE30F6630932300F8942224F6
:10009000E7E2F9E6EDBFFEBFE0E6E0938100E4E0D1
:1000A000E0938000E8EDF7E0E4BFF0930001A8954D
:1000B000E8EDF4E2E4BFF0936800009140000093A3
:1000C0004000E8EDE4BF209201102BBE20B824B818
:1000D00028B82CB820BA24BAE8EDF0E6E4BFF093D3
:1000E0001001E0914101E211FCCF209248012092E1
:1000F0004901E1E0E0934001EDE1E093E205E3E056
:10010000E093E305E3E0E093E405429A439A409AE2
:10011000E4E0E0936109E1E3E0936009E8E0E09363
:100120001304E0931204E0931104E0931004E0E060
:10013000F8E02682A0ECB0E0A087B1872582A3E09A
:10014000A783A2ECA683079805980E9A0C9A069AA4
:10015000049AE8E0E093B304E093B204E093B504BA
:10016000E093B404E0E4F8E02682A0ECB0E0A087DD
:10017000B187A0E8A583A3E0A783A2ECA683A298F9
:10018000A598AB9AAC9AA39AA49A809A029A0398DB
:100190000B9845D057D000FD02C001FF06C0E0E03B
:1001A000F0E6AFEFA193F836E8F3E0E0F8E621924D
:1001B000F038E8F3E0914801F0914901F230D0F3D2
:1001C0002CD03CD0B29B0BC000900090009429F042
:1001D000C2E0A5D456D409F447C1E1E028C1E0E06B
:1001E000FAE02082218222822382AFE0A083E0E035
:1001F000FBE020822182AAE7B1E0A487B587A1E0D5
:10020000A583A5E0A0839CD2A1D2789406D016D075
:10021000C2E67CD4E0E0D0D142C0E0E002C0EFEF23
:1002200000C0E0FF889AE0FD8898E1FF0A9AE1FDAE
:100230000A98E3FF039AE3FD03980895E0E003C002
:10024000E5E501C0EFEFE093640904D003D002D0EC
:100250004B984B9A0895E8EDF1E0E0933400F09369
:100260004100FFCFA895E8EDE4BFE1E0E093000195
:10027000FFCFB2D3FBD29681A6D30C92A3D3B1C346
:10028000ABD3A0D397819FD3F1D209901C900110DA
:100290000C9211960197C9F795D3A3D30895E7E27D
:1002A000F9E6EDBFFEBF222734E0EAE285D1C09136
:1002B000006935D426D1203491F324FD10C026FFE7
:1002C000F9CFEAE4F3E0059000160590159019F4D3
:1002D000F0010995E4CFEE36B1F720FFEBCF003403
:1002E00049F7622F6370613029F72062F7D07A3BBB
:1002F00021F46031A1F62061DDCF24FFD0CF7B3B1C
:1003000039F4693060F6C62F0AD4246031E0D2CFC8
:100310007C3B21F422FFC3CF7DD1CCCF7F3B51F674
:10032000603011F40AD0BBCF613009F40AD0B7CFE6
:1003300068E070C1C02FEAD3B2CF65D3EEED3CD1F7
:10034000AECF62D3ECEE38D1AACF532A02521102BB
:10035000649801619A01629A01639A01659A016643
:100360009A01739A01759A016C9A01004F01EFB6D8
:100370004F01E0914408E7FF13C0E72DE619E03C88
:1003800023FF08F0AB9AE0914108E2FD82C0F0E75C
:10039000E72D7090400871927E2EF401EFBE189503
:1003A000E091060BE093060B761411F442104A9488
:1003B0003A9422F4332EE1E0E0938704F401EFBE97
:1003C0001895E0E0F0E00895EDE0F0E00895E0E059
:1003D000F1EC0895E1E0F0E00895E0E0F1EC08953B
:1003E00003D0A2C301D09EC3AFE0B0E0C0E1D1E131
:1003F0000895F8DFA193B193C193D193F1DFA19355
:10040000B193C193D1930895DFEF672C94D0671017
:10041000FBCF2197D9F7089517D048F00895EBE066
:1004200001C0EAE010DF2092480120924901A8951E
:10043000F894AB98F0E208D0E8F705DFF0E404D0D8
:10044000E8F7EBDEFBDE07CF0090480100904901A2
:10045000F0150895C091006962D313D3C9F4CF3069
:1004600011F0CB30A9F4D0DF209245082092000A89
:100470002092000B2092050B209248012092490106
:100480008ED1FE01E050F048F695E795F894099476
:1004900011CFF89420924608AB98E8E0C2DEE5E57B
:1004A000D2DEEFEFA89500C000C000C0E211EA95CF
:1004B000B59BF8CFE211F5CFC4CF8E2F9927C3DEBD
:1004C000E8E0AFDEE4EA78D0F0911100E2E0F0FD80
:1004D000EAE0A7DE32E0672C2ED0F6CF04D0702FF2
:1004E00002D0602F089507D002950F9304D00F908B
:1004F0000029F00E089505D00F7D075308F4095D1B
:10050000089519D0421002C025FDC9CE7614C9F352
:10051000F0E7E62D00816394206442102F7B26FDD6
:100520002F7EFBE04F2E21FF23950A3011F00D3076
:1005300009F42C7F00C00F01A89523FD06C0E72D0C
:10054000E619E03218F4AB9801C0AB9AF0010895B7
:10055000019101D003C00F93029501C00F930F705A
:10056000005D0A3308F0095F1BD00F910895092F31
:10057000F0DF082FEECF0AE013D00DE011C0E0E06D
:10058000F1E1E6DFE5DFE4DF0EE20AD029DFCE01AC
:10059000EEDFCD01ECDF26DFCE01E9DFCD01E7CFD5
:1005A000D8E1C9DF0090440805FEFBCF2197B2993E
:1005B000C1F7009342080895E0930169FDE0E091DE
:1005C000016905910EBBE0930169002391F012F0DF
:1005D000E7DFF4CFF1990ED0F29911D0F399C7DF8C
:1005E000F499CDDFF69913D0F59969D2F099C3DF6C
:1005F000E5CF0895C591E093016991D24CC2009076
:100600000069109031690AE210100895C9CF09E01D
:10061000C7DF43C26CBBE09976D2E19907D0E3997A
:1006200056D2E69921CFE799FACE089517D1B7D0DF
:10063000C0930269D093036964DF20FFFDCF0A33C2
:10064000D9F751DF502EF02E49DFC0910269D091C9
:100650000369C60FD71F47DF003031F00130F1F0DA
:10066000023069F0E4E029CFFDD008945208A0F0F0
:100670002AD1E5E0C8F037DF802F0ED1F6CF2EDF8C
:10068000660F771F660F771F660F771F660F771F3E
:10069000609302697093036903D0CECF5AD100C032
:1006A00022DFF21411F0E6E008CF0895BBD0CBE5CD
:1006B000D3E049D04EC0A8950895C487D587089542
:1006C000C93008F0C9E0DCE0CD9FE001C65FD54746
:1006D0000895F6DFADC0C083D183C48BD58BCA0F1C
:1006E000DB1FC283D3830895A68FA895C28FD38FB3
:1006F000D5D020F0C28DD38D2197B9F70895AA27C0
:10070000BB27C48FD58FEC8FFD8FA895A28FB38F99
:10071000C48DD58DFE01B2D048F0C48DD58DFE01BB
:10072000BCD020F0A28DB38D119779F708958FEF8B
:1007300079D0868FA895B2D0E8F70CC1FADFFFCF49
:1007400071D0C6EFD4E0C68BD78B08956BD0CFEFB6
:10075000D4E0C08FD18F089565D081D00ED018D04D
:10076000E1C160D07CD009D013D0DEC15BD0F5DF11
:1007700002841384C015D1050895C489D5890895CC
:10078000C489D58900801180C019D10908954AD043
:10079000A281B38104881588A019B109089542D0B7
:1007A000C081D18108953ED0C281D38108953AD0CD
:1007B00000801180C281D381C019D10909F021962E
:1007C0000024021C08957CDFFE0100801180C2819C
:1007D000D381F2CF0C2EC6E1DAE81884101419F098
:1007E0002C96C637D1F70895DCE0CD9FE001C65FB7
:1007F000D5470895CE01C6E1DAE808801980801552
:10080000910530F00A801B808015910531F028F0A9
:100810002C96C63791F70894089588940895A0E01F
:10082000B1E70895E8E2F9E60895FCDFA487B5870B
:100830008CE0099001928A95E1F73C97C481D581BB
:100840002197C095D095C28BD38BC081D181C687AB
:10085000D787C08BD18B278E02D07EC0E3DFC081CB
:10086000D18101C0DFDFC48BD58B08958481958150
:10087000A685B785C485D5850895D4DF25D038F001
:10088000C489D58950D020F08991C48BD58B089527
:1008900021968FEF0894F9CFC5DF868F15D090F0A1
:1008A00053D0C481D5812197A489B589CA23DB237C
:1008B0001196A48BB58BA485B585CA0FDB1F868DD9
:1008C000888388940895AEDF048810800114058819
:1008D0001180010440F004881280011405881380FF
:1008E000010419F010F008940895889408959ADF8F
:1008F000C489D589A685B785CA17DB0730F0A089DA
:10090000B189CA17DB0719F010F00894089588948C
:10091000089588DFC685D78506D0A78DAE7F08F4F9
:10092000A160A78F0895C034B0E1DB0748F0D6314D
:1009300048F0D03628F0D03828F0D03908F002C07E
:100940000894089588940895D3DF10F403D004D058
:10095000089568DF2BD026C0C489D5890288138802
:10096000C021D121C687D78784819581C80FD91F1F
:100970002197C08BD18BCEDF40F0A685B785C4858B
:10098000D5850D9009920197E1F70895078C00FC39
:1009900007C06CDF09901D90011419F40197D1F77D
:1009A00018940895F3DF09F06BCC0895078C00FCD0
:1009B00008955CDF09901D90102001105ACC01971A
:1009C000C9F7089590E0809102108370E1F78DE9F6
:1009D00084BF90930010089506880F9207880F92A5
:1009E0000895008C0F92018C0F9208952860AB9AA5
:1009F000FF93F4E6A0DDFA95E9F7FF910895277FCC
:100A00009ACD98940895089508950000FFFF01007D
:100A100000002D00000000A0FFFF00020802660198
:100A20000FC10090FF9F0002080262020BC1001478
:100A3000FF150100181265030EC180109F102000E1
:100A4000080263040CC100111F11010000007305AE
:100A500000005010581001000000750600000060F2
:100A6000FF670002000061070AC140104F1001003B
:100A700000006C08000000110011010000002D09A9
:100A8000000074DEA0930469B0930569C093066901
:100A9000D09307690895F5DF01C09894EEEC09F44E
:100AA000E4ED0ED0909107698091066960DD909128
:100AB0000569809104695BDD02C0EEEC01C0EAEDDE
:100AC000FDE00591002311F06BDDFBCF089553DDB0
:100AD000C5DEF3DFA7DE8489958900E1080F090FE1
:100AE000F02EE0E969DDC9DE38F0082FF00E31DDC7
:100AF00099DE04890F70B9F7E0DFF1940F2D29DD3D
:100B0000E2DE40F70895AADE12DE23CF05D0009181
:100B100031690093006908955DDE81DE86CE64DE72
:100B20007EDE83CEE89404C06894CA0FDB1F00C049
:100B3000EF93FF936FEF7FEFCB01FF27A8950EF0A8
:100B400019900EF41A9008941794062E0F1E96957D
:100B500087957795679500FE08C0EDEE9E27E8EB38
:100B60008E27E3E87E27E0E26E27169471F711974F
:100B700028F790958095709560950E01DB01EC014A
:100B80008623872389238095FF91EF910895FFFFA6
:100D0000A1811B5B34316D2E2E2E5B524553455411
:100D10002D885DA11B5B34346D2E2E2E5B524F4D02
:100D20002E5254422E6275735D00A1814944205BAE
:100D3000905D814C3A208708523A201B5B33326D1C
:100D40004331305230303031A1533A208705553A83
:100D500020870681413A208707423A20C702433A5A
:100D6000208704453A208703463A20870181524F65
:100D70004D205B527C537C645D202D205B617C6246
:100D80007C637C657C667C6C7C737C755D3E20003E
:100D9000813A31301B5B39346DA81B5B39306D30C3
:100DA00030A0000081811B5B34356D2E2E2E5B45FB
:100DB00072726F722023885DA0202D203C627265C4
:100DC000616B3E20746F20726573756D65001B5BEF
:100DD00039306D001B5B33326D001B5B6D00A181F0
:100DE0001B5B34346D5B532D3E5D0000A1811B5BAA
:100DF00034346D5B3C2D525D0000FFFFFFFFFFFFB1
:100E0000ACAAA9A5A3A69C9A999593968E8D8BB111
:100E1000B2B4B874726C6A696563665C5A595553AA
:100E2000564E4D4B4771E8E4E2D1C9C5D8D4D2CA79
:100E3000C6CC78171B1D1E2E363A272B2D3539337D
:100E40001ED00ED01CD00CC00BD019D009C017D0AA
:100E500007D015C005D0E991EF73E081ED930895B7
:100E6000E991EF70F881FF0FEE1FFF0FEE1FFEE814
:100E7000E081ED93E991EF73E081ED930895FEE851
:100E8000E881E695E695E081ED93E991E370E295DE
:100E9000F881F07FF295EF2BFEE8E081ED93089565
:100EA000FEE8E881E081ED930895FFFFFFFFFFFF7B
:100F0000005EBCE2613FDD83C29C7E20A3FD1F41E9
:100F10009DC3217FFCA2401E5F01E3BD3E6082DCD9
:100F2000237D9FC1421CFEA0E1BF5D0380DE3C62C9
:100F3000BEE0025CDF81633D7C22C09E1D43A1FFB9
:100F40004618FAA427799BC584DA3866E5BB5907A9
:100F5000DB856739BAE406581947A5FB7826C49A99
:100F6000653BD987045AB8E6A7F91B45C6987A2489
:100F7000F8A6441A99C7257B3A6486D85B05E7B979
:100F80008CD2306EEDB3510F4E10F2AC2F7193CD69
:100F9000114FADF3702ECC92D38D6F31B2EC0E5059
:100FA000AFF1134DCE90722C6D33D18F0C52B0EE49
:100FB000326C8ED0530DEFB1F0AE4C1291CF2D7339
:100FC000CA947628ABF517490856B4EA6937D58B29
:100FD0005709EBB536688AD495CB2977F4AA481619
:100FE000E9B7550B88D6346A2B7597C94A14F6A809
:100FF000742AC896154BA9F7B6E80A54D7896B35F9
:1010000087C0FFCFFFC7FFCFFFC7FFCFFFC7FFCF0F
:10101000FFC7FFCFFFC7FFCFFFC7FFCFFFC7FFCF80
:10102000FFC7FFCFFFC7FFCFFFC7FFCFFFC7FFCF70
:10103000FFC7FFCFFFC7FFCFFFC7FFCFFFC7FFCF60
:10104000FFC7FFCFFFC7FFCFFFC7FFCFFFC7FFCF50
:10105000FFC7FFCFFFC7FFCFFFC7FFCFFFC7FFCF40
:10106000FFC7FFCFFFC7FFCFFFC7FFCFFFC7FFCF30
:10107000FFC7FFCFFFC7FFCFFFC7FFCFFFC7FFCF20
:10108000FFC7FFCFFFC7FFCFFFC7FFCFFFC7FFCF10
:10109000FFC7FFCFFFC7FFCFFFC7FFCFFFC7FFCF00
:1010A000FFC7FFCFFFC7FFCFFFC7FFCFFFC7FFCFF0
:1010B000FFC7FFCFFFC7FFCFFFC7FFCFFFC7FFCFE0
:1010C000FFC7FFCFFFC7FFCFFFC7FFCFFFC7FFCFD0
:1010D000FFC7FFCFFFC7FFCFFFC7FFCFFFC7FFCFC0
:1010E000FFC7FFCFFFC7FFCFFFC7FFCFFFC7FFCFB0
:1010F000FFC7FFCFFFC7FFCFFFC7FFCFFFC7FFCFA0
:1011000001000BC1000000006AE30F661CFC2FED1C
:10111000F8943324E8EDF0E0E4BFF0931001EFE140
:10112000F0E7EDBFFEBFE0E0F0E6C0E0D0E23192D4
:101130002197E9F73092000AE0E0FBE03082358247
:10114000E2E2F2E742D0C2E2D0E741D0C1E041D0D2
:101150002ED009F455C7E2E032C00C9408000C947C
:1011600009000C940A000C940B000C940C000C94D5
:101170000D000C940E000C940F000C9410000C94B5
:1011800011000C9412000C9413000C9414000C9495
:1011900015000C9416000C9417000C9418000C9475
:1011A00019000C941A000C941B000C941C000C9455
:1011B0001D000C941E000C941F000C9420000C9435
:1011C00021000C9422000C9423000C9424000C9415
:1011D00025000C9426000C9427000C9428000C94F5
:1011E00029000C942A000C942B000C942C000C94D5
:1011F0002D000C942E000C942F000C9430000C94B5
:1012000031000C9432000C9433000C9434000C9494
:1012100035000C9436000C9437000C9438000C9474
:1012200039000C943A000C943B000C943C000C9454
:101230003D00E2E0F2E000C0EF23F0950090207066
:101240000F22E02904C0E0E002C0EFEF00C0E0930D
:10125000207000C0E09120700C94B708EF23F09547
:10126000009021700F22E02906C0E0E004C0E5E50F
:1012700002C0EFEF00C0E093217000C0E091217048
:101280000C94B508FFFFFFFFFFFFFFFFFFFFFFFF0D
:102000009DC0FFFFFFFFFFFFFFFFFFFFFFFFFFFF81
:10209000FFFFFFFF2090410822FC3AC0209040083B
:1020A0002D92BD111895B0E71895FFFFFFFFFFFFB8
:1021000001000FC1020100006AE30F66AEBB6C580C
:10211000889A03982398229830926608AB98309258
:102120004608E5E59FD5EFEFA89500C000C0E31194
:10213000EA95B59BF9CFE311F6CFD6C5F8943324D1
:10214000E8EDE0933400E5E8E0930110ECE010D610
:10215000E8EDF3E0E4BFF0936000B5D0E0916300F8
:10216000E1FDFCCFE8EDF1E0E4BFF0936200E0E0D8
:10217000F0E6C0E0D0E231922197E9F7F3D5E8ED3F
:10218000E4BFE4E0E0930001A895EFE1F0E6EDBFE5
:10219000FEBFE8E0E0931304E0931204E09311041F
:1021A000E0931004E0E0F8E03682A0ECB0E0A08715
:1021B000B1873582A3E0A783A2ECA6830798059890
:1021C0000E9A0C9A069A049AE8E0E093B304E0931E
:1021D000B204E093B504E093B404E0E4F8E036829E
:1021E000A0E4B0E0A087B187A0E8A583A3E0A7831F
:1021F000A2ECA683A298A598AB9AAC9AA39AA49AAB
:10220000E8E0E0933104E0933004E0933404E09399
:102210003204E0933504E0933304E0E6F8E03682DC
:10222000A0E6B0E0A087B1873582A3E0A783A2EC47
:10223000A683249822982198289A209A2598239852
:102240002B98E0E0FAE03082318232823382A3E0E0
:10225000A083E0E0FBE03082328633863182ACED51
:10226000BFEFA487B587A5E1A0833CBA44275527D3
:1022700079D566D520E030E739012901E901D90196
:10228000F0E8DF2E7894AB98E091060BE0FF0CC0ED
:10229000E093060B70D5E0912160E395E093216017
:1022A00019F0EFE5E0930208A895B43768F330928F
:1022B0000A0B30920B0BE091060BE093060BEEE35A
:1022C000E09302080BC00895F901E289E0FF889AC3
:1022D000E0FD88983C5F3D11331330E7A895E0910D
:1022E0004408B29BE5FF09C0C415D50531F0E9915A
:1022F000E0934208DD11DD13D0E7FD01EC1BFD0B7F
:1023000012F4E050F04FE03EEFE0FE0710F0AB9A21
:1023100001C0AB98E091060BE0FFE0CFE093060B25
:102320002AD539012901E894A895FD01E619F70994
:1023300012F4E050F04FE030E4E0FE0710F0689453
:10234000239800C000C04B984B9A2298A895E09122
:102350004408B29BE5FF09C0C415D50531F0E991E9
:10236000E0934208DD11DD13D0E7FD01EC1BFD0B0E
:1023700012F4E050F04FE03EEFE0FE0710F0AB9AB1
:1023800001C0AB98349BE2CF0EF02DC100C0EAE251
:10239000E0930208039A4FEF57E02BD043D044D08C
:1023A00043D042D041D045D03FD03ED03DD03CD0AC
:1023B0003BD03AD039D038D037D036D035D034D0E1
:1023C00033D032D031D030D02FD02ED02DD02CD011
:1023D0002BD02AD029D028D027D026D025D024D041
:1023E00023D022D021D020D0F901E489E0932160CC
:1023F0006BCFE2E0E093000AE8E0E093050A00E337
:1024000010E00093280A1093290AE0910B0AE09348
:102410000B0AE091060BE093060BE09A87E0005C64
:102420001D4F0CC0E09A01C0E09887E100501A4FA0
:1024300005C0E0988FE70054114E00C0E2E4E0933D
:102440006608E2ECE09366082301F30101903F0186
:10245000E09B3292E3E0E093000AE0910B0AE4FF94
:10246000FCCF00926208E0914408B29BE5FF09C0EE
:10247000C415D50531F0E991E0934208DD11DD1373
:10248000D0E7229A0093280A1093290AE0910B0AB8
:10249000E0930B0A0090640807FE05C0F20110905B
:1024A000600811922F0105FEF5CFF3010190009213
:1024B00062083F01E09B3292E0914408B29BE5FF45
:1024C00009C0C415D50531F0E991E0934208DD114A
:1024D000DD13D0E7FD01EC1BFD0B12F4E050F04FD3
:1024E000E03EEFE0FE0710F0AB9A01C0AB988A9592
:1024F00089F60090640807FE05C0F201109060089C
:1025000011922F01E0916408E0936408E09164085F
:10251000E6FFFCCF0090640807FC04C000C000C0C8
:10252000000005C0F2011090600811922F01009088
:10253000640807FC04C000C000C0000005C0F20130
:102540001090600811922F010090640807FC04C0ED
:1025500000C000C0000005C0F20110906008119298
:102560002F010090640807FC04C000C000C00000F8
:1025700005C0F2011090600811922F0100906408CC
:1025800007FC04C000C000C0000005C0F2011090AC
:10259000600811922F010090640807FC04C000C07D
:1025A00000C0000005C0F2011090600811922F01D8
:1025B0000090640807FC04C000C000C0000005C013
:1025C000F2011090600811922F010090640807FC3E
:1025D00004C000C000C0000005C0F20110906008F7
:1025E00011922F0108950398E52FE770EE0FEE0F7B
:1025F000F0E0E85FF94D8591809321608591F69533
:10260000E79541505040099401000EC0030014C0EA
:10261000070018C00F001CC01F0020C03F0024C0CE
:102620007F0028C0FF002CC0E0E3E093020857FDC4
:1026300051E0E4E5F8E22AC0E1E3E0930208E4EDCA
:10264000F8E224C0E2E3E0930208E4E5F9E21EC008
:10265000E3E3E0930208E4EDF9E218C0E4E3E09379
:102660000208E4E5FAE212C0E5E3E0930208E4EDD3
:10267000FAE20CC0E6E3E0930208E4E5FBE206C000
:10268000E7E3E0930208E4EDFBE200C03F0127D05E
:102690003BD04BD04AD049D048D037D03AD039D0AF
:1026A00038D037D036D035D034D033D032D031D006
:1026B00030D02FD02ED02DD02CD02BD02ED02DD02E
:1026C0002CD02BD02AD029D028D027D026D025D046
:1026D00024D023D022D021D020D01FD0FFCDE2E0C3
:1026E000E093000AE8E0E093050A00E310E00093BD
:1026F000280A1093290AE0910B0AE0930B0AE09153
:10270000060BE093060B0DC010C0E4EAF7E23F01B0
:1027100010C0E4E2F8E23F0108C0ECE3F8E23F0158
:1027200004C087E0005C1D4F08C087E100501A4FCD
:1027300004C08FE70054114E00C0A895E2E4E09376
:102740006608E2ECE0936608F30105903F01E3E0E0
:10275000E093000AE0910B0AE4FFFCCF00926208CC
:10276000229A0093280A1093290AE0910B0AE09319
:102770000B0A0090640805FEFCCFF301059000925F
:1027800062083F01FD01EC1BFD0B12F4E050F04F1D
:10279000E03EEFE0FE0710F0AB9A01C0AB988A95DF
:1027A00041F70895FFFFFFFFFFFFFFFFFFFFFFFF60
:10282000FFFFFFFF00FFFFFFFFFFFFFFFFFFFFFFB7
:10283000FFFFFFFFFFFFFFFFFFFFFF7201BFFF0072
:10284000C0CD8003FF00FF0000000000000000007A
:102850000000003AFFFFFFFFFFFFFF14FFFF000033
:10286000FFFFFFFFFFFFFF0101FFFFFFFFFFFFFF74
:10287000FFFFFF48FFFFFFFFFFFFFFFFFFFFFFFF1F
:10288000FFFFFFFFFFFFFF674B8621E2FFFFFFFF18
:10289000FFFFFFFFFFFFFFFFFFFFFFFFFFFFFF67E0
:1028A0004B8621E2FFFFFFFFFFFFFFFFFFFFFFFF60
:1028B000FFFFFFFFFFFFFF674B8621E201BFFF0025
:1028C000C0CD8003FF00FF000000000000000000FA
:1028D0000000003AFFFFFFFFFFFFFF14FFFFFFFFB5
:1028E000FFFFFFFFFFFFFF0303FFFFFFFFFFFFFFF0
:1028F000FFFFFF3AFFFFFFFFFFFFFFFFFFFFFFFFAD
:10290000FFFFFFFFFFFFFF674B8621E2FFFFFFFF97
:10291000FFFFFFFFFFFFFFFFFFFFFFFFFFFFFF675F
:102920004B8621E2FFFFFFFFFFFFFFFFFFFFFFFFDF
:10293000FFFFFFFFFFFFFF674B8621E201BFFF00A4
:10294000C0CD8003FF00FF00000000000000000079
:102950000000003AFFFFFFFFFFFFFF14FFFF000032
:10296000FFFFFFFFFFFFFF0707FFFFFFFFFFFFFF67
:10297000FFFFFFEDFFFFFFFFFFFFFFFFFFFFFFFF79
:10298000FFFFFFFFFFFFFF674B8621E2FFFFFFFF17
:10299000FFFFFFFFFFFFFFFFFFFFFFFFFFFFFF67DF
:1029A0004B8621E2FFFFFFFFFFFFFFFFFFFFFFFF5F
:1029B000FFFFFFFFFFFFFF674B8621E201BFFF0024
:1029C000C0CD8003FF00FF000000000000000000F9
:1029D0000000003AFFFFFFFFFFFFFF14FFFF0000B2
:1029E000FFFFFFFFFFFFFF0F0FFFFFFFFFFFFFFFD7
:1029F000FFFFFF78FFFFFFFFFFFFFFFFFFFFFFFF6E
:102A0000FFFFFFFFFFFFFF674B8621E2FFFFFFFF96
:102A1000FFFFFFFFFFFFFFFFFFFFFFFFFFFFFF675E
:102A20004B8621E2FFFFFFFFFFFFFFFFFFFFFFFFDE
:102A3000FFFFFFFFFFFFFF674B8621E201BFFF00A3
:102A4000C0CD8003FF00FF00000000000000000078
:102A50000000003AFFFFFFFFFFFFFF14FFFF000031
:102A6000FFFFFFFFFFFFFF1F1FFFFFFFFFFFFFFF36
:102A7000FFFFFF4BFFFFFFFFFFFFFFFFFFFFFFFF1A
:102A8000FFFFFFFFFFFFFF674B8621E2FFFFFFFF16
:102A9000FFFFFFFFFFFFFFFFFFFFFFFFFFFFFF67DE
:102AA0004B8621E2FFFFFFFFFFFFFFFFFFFFFFFF5E
:102AB000FFFFFFFFFFFFFF674B8621E201BFFF0023
:102AC000C0CD8003FF00FF000000000000000000F8
:102AD0000000003AFFFFFFFFFFFFFF14FFFFFFFFB3
:102AE000FFFFFFFFFFFFFF3F3FFFFFFFFFFFFFFF76
:102AF000FFFFFF2DFFFFFFFFFFFFFFFFFFFFFFFFB8
:102B0000FFFFFFFFFFFFFF674B8621E2FFFFFFFF95
:102B1000FFFFFFFFFFFFFFFFFFFFFFFFFFFFFF675D
:102B20004B8621E2FFFFFFFFFFFFFFFFFFFFFFFFDD
:102B3000FFFFFFFFFFFFFF674B8621E201BFFF00A2
:102B4000C0CD8003FF00FF00000000000000000077
:102B50000000003AFFFFFFFFFFFFFF14FFFF000030
:102B6000FFFFFFFFFFFFFF7F7FFFFFFFFFFFFFFF75
:102B7000FFFFFFE1FFFFFFFFFFFFFFFFFFFFFFFF83
:102B8000FFFFFFFFFFFFFF674B8621E2FFFFFFFF15
:102B9000FFFFFFFFFFFFFFFFFFFFFFFFFFFFFF67DD
:102BA0004B8621E2FFFFFFFFFFFFFFFFFFFFFFFF5D
:102BB000FFFFFFFFFFFFFF674B8621E201BFFF0022
:102BC000C0CD8003FF00FF000000000000000000F7
:102BD0000000003AFFFFFFFFFFFFFF14FFFF0000B0
:102BF000FFFFFF60FFFFFFFFFFFFFFFFFFFFFFFF84
:102C0000FFFFFFFFFFFFFF674B8621E2FFFFFFFF94
:102C1000FFFFFFFFFFFFFFFFFFFFFFFFFFFFFF675C
:102C20004B8621E2FFFFFFFFFFFFFFFFFFFFFFFFDC
:102C3000FFFFFFFFFFFFFF674B8621E201BFFF00A1
:102C4000C0CD8003FF00FF00000000000000000076
:102C50000000003A0C9408000C9409000C940A003F
:102C60000C940B000C940C000C940D000C940E00B2
:102C70000C940F000C9410000C9411000C94120092
:102C80000C9413000C9414000C9415000C94160072
:102C90000C9417000C9418000C9419000C941A0052
:102CA0000C941B000C941C000C941D000C941E0032
:102CB0000C941F000C9420000C9421000C94220012
:102CC0000C9423000C9424000C9425000C942600F2
:102CD0000C9427000C9428000C9429000C942A00D2
:102CE0000C942B000C942C000C942D000C942E00B2
:102CF0000C942F000C9430000C9431000C94320092
:102D00000C9433000C9434000C9435000C94360071
:102D10000C9437000C9438000C9439000C943A0051
:102D20000C943B000C943C000C943D00E2E0F2E07B
:102D300000C0EF23F095009020600F22E02904C02E
:102D4000E0E002C0EFEF00C0E093206000C0E0913F
:102D500020600C943416EF23F095009021600F2230
:102D6000E02906C0E0E004C0E5E502C0EFEF00C0E6
:102D7000E093216000C0E09121600C943216FFFFC7
:1090000087C0FFCFFFC7FFCFFFC7FFCFFFC7FFCF8F
:10901000FFC7FFCFFFC7FFCFFFC7FFCFFFC7FFCF00
:10902000FFC7FFCFFFC7FFCFFFC7FFCFFFC7FFCFF0
:10903000FFC7FFCFFFC7FFCFFFC7FFCFFFC7FFCFE0
:10904000FFC7FFCFFFC7FFCFFFC7FFCFFFC7FFCFD0
:10905000FFC7FFCFFFC7FFCFFFC7FFCFFFC7FFCFC0
:10906000FFC7FFCFFFC7FFCFFFC7FFCFFFC7FFCFB0
:10907000FFC7FFCFFFC7FFCFFFC7FFCFFFC7FFCFA0
:10908000FFC7FFCFFFC7FFCFFFC7FFCFFFC7FFCF90
:10909000FFC7FFCFFFC7FFCFFFC7FFCFFFC7FFCF80
:1090A000FFC7FFCFFFC7FFCFFFC7FFCFFFC7FFCF70
:1090B000FFC7FFCFFFC7FFCFFFC7FFCFFFC7FFCF60
:1090C000FFC7FFCFFFC7FFCFFFC7FFCFFFC7FFCF50
:1090D000FFC7FFCFFFC7FFCFFFC7FFCFFFC7FFCF40
:1090E000FFC7FFCFFFC7FFCFFFC7FFCFFFC7FFCF30
:1090F000FFC7FFCFFFC7FFCFFFC7FFCFFFC7FFCF20
:1091000001000BC1000000006AE30F661CFC2FED9C
:10911000F8943324E8EDF0E0E4BFF0931001EFE1C0
:10912000F0E7EDBFFEBFE0E0F0E6C0E0D0E2319254
:109130002197E9F73092000AE0E0FBE030823582C7
:10914000E2E2F2E742D0C2E2D0E741D0C1E041D052
:109150002ED009F455C7E2E032C00C9408000C94FC
:1091600009000C940A000C940B000C940C000C9455
:109170000D000C940E000C940F000C9410000C9435
:1091800011000C9412000C9413000C9414000C9415
:1091900015000C9416000C9417000C9418000C94F5
:1091A00019000C941A000C941B000C941C000C94D5
:1091B0001D000C941E000C941F000C9420000C94B5
:1091C00021000C9422000C9423000C9424000C9495
:1091D00025000C9426000C9427000C9428000C9475
:1091E00029000C942A000C942B000C942C000C9455
:1091F0002D000C942E000C942F000C9430000C9435
:1092000031000C9432000C9433000C9434000C9414
:1092100035000C9436000C9437000C9438000C94F4
:1092200039000C943A000C943B000C943C000C94D4
:109230003D00E2E0F2E000C0EF23F09500902070E6
:109240000F22E02904C0E0E002C0EFEF00C0E0938D
:10925000207000C0E09120700C94B708EF23F095C7
:10926000009021700F22E02906C0E0E004C0E5E58F
:1092700002C0EFEF00C0E093217000C0E0912170C8
:109280000C94B508FFFFFFFFFFFFFFFFFFFFFFFF8D
:00000001FF
