:020000020000FC
:100000000C9446000C9437020C9437020C94CD01EA
:10001000F1C1F3C1F5C1F7C116C103C19EC59FC5AA
:10002000F7C1F4C1FCC1AAC3AFC334C437C4C0C351
:10003000CAC3D1C364C43DC44BC4B4C3A9C3ADC314
:10004000DDC40BC2FFC104C24DC352C35DC35EC356
:1000500066C372C389C38DC398C4FDC003C18FC476
:10006000C2C3CCC3A8C3E8C4E9C4E9C4E9C6ECC6AA
:10007000EEC6F0C6F5C603C713C7B9C1010000C17B
:100080000000000009AC1E661AF8C7F1F89422249B
:10009000E7E2F9E6EDBFFEBFE0E6E0938100E4E0D1
:1000A000E0938000E8EDF7E0E4BFF0930001A8954D
:1000B000E8EDF4E2E4BFF0936800009140000093A3
:1000C0004000E8EDE4BF209201102BBE20B824B818
:1000D00028B82CB820BA24BAE8EDF0E6E4BFF093D3
:1000E0001001E0914101E211FCCF209248012092E1
:1000F0004901E1E0E0934001EDE1E093E205E3E056
:10010000E093E305E3E0E093E405429A439A409AE2
:10011000E4E0E0936109E1E3E0936009E8E0E09363
:100120001304E0931204E0931104E0931004E0E060
:10013000F8E02682A0ECB0E0A087B1872582A3E09A
:10014000A783A2ECA683079805980E9A0C9A069AA4
:10015000049AE8E0E093B304E093B204E093B504BA
:10016000E093B404E0E4F8E02682A0ECB0E0A087DD
:10017000B187A0E8A583A3E0A783A2ECA683A298F9
:10018000A598AB9AAC9AA39AA49A809A029A0398DB
:100190000B9845D057D000FD02C001FF06C0E0E03B
:1001A000F0E6AFEFA193F836E8F3E0E0F8E621924D
:1001B000F038E8F3E0914801F0914901F230D0F3D2
:1001C0002CD03CD0B29B0BC000900090009429F042
:1001D000C2E0C0D471D409F45DC1E1E03EC1E0E009
:1001E000FAE02082218222822382AFE0A083E0E035
:1001F000FBE020822182AAE7B1E0A487B587A1E0D5
:10020000A583A5E0A083B7D2BCD2789406D016D03F
:10021000C2E697D4E0E0E6D142C0E0E002C0EFEFF2
:1002200000C0E0FF889AE0FD8898E1FF0A9AE1FDAE
:100230000A98E3FF039AE3FD03980895E0E003C002
:10024000E5E501C0EFEFE093640904D003D002D0EC
:100250004B984B9A0895E8EDF1E0E0933400F09369
:100260004100FFCFA895E8EDE4BFE1E0E093000195
:10027000FFCFCDD316D39681C1D30C92BED3CCC3BE
:10028000C6D3BBD39781BAD30CD309901C9001106D
:100290000C9211960197C9F7B0D3BED30895E7E247
:1002A000F9E6EDBFFEBF222734E0EAE29BD1C09120
:1002B000006950D43CD1203491F324FD10C026FFB6
:1002C000F9CFEEE5F3E0059000160590159019F4CE
:1002D000F0010995E4CFEA39B1F720FFEBCF003404
:1002E00049F7622F6370613029F720620DD17A3BA4
:1002F00021F46031A1F62061DDCF24FFD0CF7B3B1C
:1003000039F4693060F6C62F25D4246031E0D2CFAD
:100310007C3B21F422FFC3CF98D1CCCF7F3B51F659
:10032000603011F40AD0BBCF613009F40AD0B7CFE6
:1003300068E08BC1C02F05D4B2CF80D3E0EE52D19C
:10034000AECF7DD3EEEE4ED1AACF0053E1E00A95B9
:1003500012F0EE0FFCCFFEB3FE27FEBB089530A5D2
:100360000131A50132A50133A50134A50135A5014F
:1003700036A50137A5015340025227026498016156
:100380009A01629A01639A01659A01669A01739AC9
:1003900001759A016C9A01004F01EFB64F01E0918F
:1003A0004408E7FF13C0E72DE619E03C23FF08F0FF
:1003B000AB9AE0914108E2FD82C0F0E7E72D709032
:1003C000400871927E2EF401EFBE1895E091060B65
:1003D000E093060B761411F442104A943A9422F4F6
:1003E000332EE1E0E0938704F401EFBE1895E0E0DE
:1003F000F0E00895EDE0F0E00895E0E0F1EC08951C
:10040000E1E0F0E00895E0E0F1EC089503D0A7C347
:1004100001D0A3C3AFE0B0E0C0E1D1E10895F8DFBF
:10042000A193B193C193D193F1DFA193B193C19300
:10043000D1930895DFEF672C94D06710FBCF2197FD
:10044000D9F7089517D048F00895EBE001C0EAE02D
:10045000FADE2092480120924901A895F894AB98C1
:10046000F0E208D0E8F7EFDEF0E404D0E8F7D5DEFC
:10047000E5DEF1CE0090480100904901F0150895A5
:10048000C091006967D318D3C9F4CF3011F0CB30D5
:10049000A9F4D0DF209245082092000A2092000B98
:1004A0002092050B209248012092490193D1FE0130
:1004B000E050F048F695E795F8940994FBCEF8944F
:1004C00020924608AB98E8E0ACDEE5E5BCDEEFEF55
:1004D000A89500C000C000C0E211EA95B59BF8CF16
:1004E000E211F5CFC4CF8E2F9927ADDEE8E099DE7B
:1004F000E6EA78D0F0911100E2E0F0FDEAE091DE6A
:1005000032E0672C2ED0F6CF04D0702F02D0602FAF
:10051000089507D002950F9304D00F900029F00E94
:10052000089505D00F7D075308F4095D089519D08B
:10053000421002C025FDB3CE7614C9F3F0E7E62DD4
:1005400000816394206442102F7B26FD2F7EFBE008
:100550004F2E21FF23950A3011F00D3009F42C7F26
:1005600000C00F01A89523FD06C0E72DE619E03273
:1005700018F4AB9801C0AB9AF0010895019101D035
:1005800003C00F93029501C00F930F70005D0A33F3
:1005900008F0095F1BD00F910895092FF0DF082F95
:1005A000EECF0AE013D00DE011C0E0E0F1E1E6DFAC
:1005B000E5DFE4DF0EE20AD029DFCE01EEDFCD0178
:1005C000ECDF26DFCE01E9DFCD01E7CFD8E1C9DFDF
:1005D0000090440805FEFBCF2197B299C1F7009324
:1005E00042080895E0930169FDE0E09101690591F9
:1005F0000DBBE0930169002391F012F0E7DFF4CF27
:10060000E9990ED0EA9911D0EB991AD0EC99CDDF87
:10061000EE9913D0ED996ED2E899C3DFE5CF089536
:10062000C591E093016996D251C200900069109083
:1006300031690AE210100895C9CF09E0C7DF48C246
:10064000EC9BABCFEC980EB39ACF6CBBE09976D213
:10065000E19907D0E39956D2E6991CCFE799F5CEF8
:10066000089517D1B7D0C0930269D09303695FDFB3
:1006700020FFFDCF0A33D9F74CDF502EF02E44DF98
:10068000C0910269D0910369C60FD71F42DF0030C5
:1006900031F00130F1F0023069F0E4E024CFFDD018
:1006A00008945208A0F02AD1E5E0C8F032DF802F8C
:1006B0000ED1F6CF29DF660F771F660F771F660F03
:1006C000771F660F771F609302697093036903D0E9
:1006D000CECF5AD100C01DDFF21411F0E6E003CFF7
:1006E0000895BBD0C6E7D3E049D04EC0A895089581
:1006F000C487D5870895C93008F0C9E0DCE0CD9FF4
:10070000E001C05CD5470895F6DFADC0C083D1835A
:10071000C48BD58BCA0FDB1FC283D3830895A68FEA
:10072000A895C28FD38FD5D020F0C28DD38D2197BD
:10073000B9F70895AA27BB27C48FD58FEC8FFD8FFB
:10074000A895A28FB38FC48DD58DFE01B2D048F08D
:10075000C48DD58DFE01BCD020F0A28DB38D119734
:1007600079F708958FEF79D0868FA895B2D0E8F702
:100770000CC1FADFFFCF71D0C1E1D5E0C68BD78BBA
:1007800008956BD0CAE1D5E0C08FD18F089565D0B0
:1007900081D00ED018D0E1C160D07CD009D013D068
:1007A000DEC15BD0F5DF02841384C015D105089546
:1007B000C489D5890895C489D58900801180C0195C
:1007C000D10908954AD0A281B38104881588A0195F
:1007D000B109089542D0C081D18108953ED0C2812F
:1007E000D38108953AD000801180C281D381C0198D
:1007F000D10909F021960024021C08957CDFFE0136
:1008000000801180C281D381F2CF0C2ECCE4DAE8D3
:100810001884101419F02C96CC3AD1F70895DCE026
:10082000CD9FE001C05CD5470895CE01CCE4DAE865
:10083000088019808015910530F00A801B80801592
:10084000910531F028F02C96CC3A91F70894089550
:1008500088940895A0E0B1E70895E8E2F9E60895E4
:10086000FCDFA487B5878CE0099001928A95E1F7B7
:100870003C97C481D5812197C095D095C28BD38BED
:10088000C081D181C687D787C08BD18B278E02D0FC
:100890007EC0E3DFC081D18101C0DFDFC48BD58B97
:1008A000089584819581A685B785C485D5850895E9
:1008B000D4DF25D038F0C489D58950D020F0899173
:1008C000C48BD58B089521968FEF0894F9CFC5DF9F
:1008D000868F15D090F053D0C481D5812197A489FB
:1008E000B589CA23DB231196A48BB58BA485B58566
:1008F000CA0FDB1F868D888388940895AEDF048835
:100900001080011405881180010440F004881280D1
:10091000011405881380010419F010F0089408955B
:10092000889408959ADFC489D589A685B785CA17A2
:10093000DB0730F0A089B189CA17DB0719F010F086
:10094000089408958894089588DFC685D78506D0D1
:10095000A78DAE7F08F4A160A78F0895C034B0E1E1
:10096000DB0748F0D63148F0D03628F0D03828F0F0
:10097000D03908F002C00894089588940895D3DF10
:1009800010F403D004D0089568DF2BD026C0C489AA
:10099000D58902881388C021D121C687D787848151
:1009A0009581C80FD91F2197C08BD18BCEDF40F026
:1009B000A685B785C485D5850D9009920197E1F785
:1009C0000895078C00FC07C06CDF09901D9001148E
:1009D00019F40197D1F718940895F3DF09F050CC7A
:1009E0000895078C00FC08955CDF09901D9010208D
:1009F00001103FCC0197C9F7089590E08091021053
:100A00008370E1F78DE984BF909300100895068804
:100A10000F9207880F920895008C0F92018C0F920D
:100A200008952860AB9AFF93F4E69BDDFA95E9F709
:100A3000FF910895277F95CD98940895089508957E
:100A40000000FFFF010000002D00000000A0FFFFDC
:100A50000002080266010FC10090FF9F0002080219
:100A600062020BC10014FF150100181265030EC1CC
:100A700080109F102000080263040CC100111F1198
:100A80000100000073050000501058100100000024
:100A9000750600000060FF670002000061070AC1E0
:100AA00040104F10010000006C0800000011001100
:100AB000010000002D09000074DEA0930469B093CA
:100AC0000569C0930669D09307690895F5DF01C0F1
:100AD0009894E0ED09F4E6ED0ED0909107698091CD
:100AE00006695BDD909105698091046956DD02C05D
:100AF000E0ED01C0ECEDFDE00591002311F066DDB5
:100B0000FBCF08954EDDC5DEF3DFA7DE848995892E
:100B100000E1080F090FF02EE2E964DDC9DE38F0CC
:100B2000082FF00E2CDD99DE04890F70B9F7E0DF95
:100B3000F1940F2D24DDE2DE40F70895AADE12DEE7
:100B400023CF05D0009131690093006908955DDEDF
:100B500081DE86CE64DE7EDE83CEE89404C06894B7
:100B6000CA0FDB1F00C0EF93FF936FEF7FEFCB0146
:100B7000FF27A8950EF019900EF41A900894179478
:100B8000062E0F1E969587957795679500FE08C0EF
:100B9000EDEE9E27E8EB8E27E3E87E27E0E26E2766
:100BA000169471F7119728F7909580957095609538
:100BB0000E01DB01EC018623872389238095FF91B9
:100BC000EF910895FFFFFFFFFFFFFFFFFFFFFFFF14
:100D0000A1811B5B34316D2E2E2E5B524553455411
:100D10002D885DA11B5B34346D2E2E2E5B524F4D02
:100D20002E5254422E6275735D00A1814944205BAE
:100D3000905D814C3A208708523A201B5B33326D1C
:100D40004331305230303031A1533A208705553A83
:100D500020870681413A208707423A20C702433A5A
:100D6000208704453A208703463A20870181524F65
:100D70004D205B987C527C537C645D202D205B6110
:100D80007C627C637C657C667C6C7C737C755D3E80
:100D90002000813A31301B5B39346DA81B5B393040
:100DA0006D3030A0000081811B5B34356D2E2E2EFE
:100DB0005B4572726F722023885DA0202D203C62FB
:100DC0007265616B3E20746F20726573756D65008E
:100DD0001B5B39306D001B5B33326D001B5B6D009C
:100DE000A1811B5B34346D5B532D3E5D0000A181FE
:100DF0001B5B34346D5B3C2D525D0000FFFFFFFF39
:100E0000ACAAA9A5A3A69C9A999593968E8D8BB111
:100E1000B2B4B874726C6A696563665C5A595553AA
:100E2000564E4D4B4771E8E4E2D1C9C5D8D4D2CA79
:100E3000C6CC78171B1D1E2E363A272B2D3539337D
:100E40001ED00ED01CD00CC00BD019D009C017D0AA
:100E500007D015C005D0E991EF73E081ED930895B7
:100E6000E991EF70F881FF0FEE1FFF0FEE1FFEE814
:100E7000E081ED93E991EF73E081ED930895FEE851
:100E8000E881E695E695E081ED93E991E370E295DE
:100E9000F881F07FF295EF2BFEE8E081ED93089565
:100EA000FEE8E881E081ED930895FFFFFFFFFFFF7B
:100F0000005EBCE2613FDD83C29C7E20A3FD1F41E9
:100F10009DC3217FFCA2401E5F01E3BD3E6082DCD9
:100F2000237D9FC1421CFEA0E1BF5D0380DE3C62C9
:100F3000BEE0025CDF81633D7C22C09E1D43A1FFB9
:100F40004618FAA427799BC584DA3866E5BB5907A9
:100F5000DB856739BAE406581947A5FB7826C49A99
:100F6000653BD987045AB8E6A7F91B45C6987A2489
:100F7000F8A6441A99C7257B3A6486D85B05E7B979
:100F80008CD2306EEDB3510F4E10F2AC2F7193CD69
:100F9000114FADF3702ECC92D38D6F31B2EC0E5059
:100FA000AFF1134DCE90722C6D33D18F0C52B0EE49
:100FB000326C8ED0530DEFB1F0AE4C1291CF2D7339
:100FC000CA947628ABF517490856B4EA6937D58B29
:100FD0005709EBB536688AD495CB2977F4AA481619
:100FE000E9B7550B88D6346A2B7597C94A14F6A809
:100FF000742AC896154BA9F7B6E80A54D7896B35F9
:00000001FF
